{
  "contracts/libraries/MultiSend.sol": {
    "MultiSend": {
      "abi": [
        {
          "inputs": [],
          "stateMutability": "nonpayable",
          "type": "constructor"
        },
        {
          "inputs": [
            {
              "internalType": "bytes",
              "name": "transactions",
              "type": "bytes"
            }
          ],
          "name": "multiSend",
          "outputs": [],
          "stateMutability": "payable",
          "type": "function"
        }
      ],
      "evm": {
        "bytecode": {
          "linkReferences": {},
          "object": "60a060405234801561001057600080fd5b503073ffffffffffffffffffffffffffffffffffffffff1660808173ffffffffffffffffffffffffffffffffffffffff1660601b8152505060805160601c6102756100646000398060e052506102756000f3fe60806040526004361061001e5760003560e01c80638d80ff0a14610023575b600080fd5b6100dc6004803603602081101561003957600080fd5b810190808035906020019064010000000081111561005657600080fd5b82018360208201111561006857600080fd5b8035906020019184600183028401116401000000008311171561008a57600080fd5b91908080601f016020809104026020016040519081016040528093929190818152602001838380828437600081840152601f19601f8201169050808301925050505050505091929192905050506100de565b005b7f000000000000000000000000000000000000000000000000000000000000000073ffffffffffffffffffffffffffffffffffffffff163073ffffffffffffffffffffffffffffffffffffffff161415610183576040517f08c379a00000000000000000000000000000000000000000000000000000000081526004018080602001828103825260308152602001806102106030913960400191505060405180910390fd5b805160205b8181101561020a578083015160f81c6001820184015160601c6015830185015160358401860151605585018701600085600081146101cd57600181146101dd576101e8565b6000808585888a5af191506101e8565b6000808585895af491505b5060008114156101f757600080fd5b8260550187019650505050505050610188565b50505056fe4d756c746953656e642073686f756c64206f6e6c792062652063616c6c6564207669612064656c656761746563616c6ca26469706673582212200f700373934d0e4630cfc013b849df27da748f96d0bec201bed9149b2d7fa9fc64736f6c63430007030033",
          "opcodes": "PUSH1 0xA0 PUSH1 0x40 MSTORE CALLVALUE DUP1 ISZERO PUSH2 0x10 JUMPI PUSH1 0x0 DUP1 REVERT JUMPDEST POP ADDRESS PUSH20 0xFFFFFFFFFFFFFFFFFFFFFFFFFFFFFFFFFFFFFFFF AND PUSH1 0x80 DUP2 PUSH20 0xFFFFFFFFFFFFFFFFFFFFFFFFFFFFFFFFFFFFFFFF AND PUSH1 0x60 SHL DUP2 MSTORE POP POP PUSH1 0x80 MLOAD PUSH1 0x60 SHR PUSH2 0x275 PUSH2 0x64 PUSH1 0x0 CODECOPY DUP1 PUSH1 0xE0 MSTORE POP PUSH2 0x275 PUSH1 0x0 RETURN INVALID PUSH1 0x80 PUSH1 0x40 MSTORE PUSH1 0x4 CALLDATASIZE LT PUSH2 0x1E JUMPI PUSH1 0x0 CALLDATALOAD PUSH1 0xE0 SHR DUP1 PUSH4 0x8D80FF0A EQ PUSH2 0x23 JUMPI JUMPDEST PUSH1 0x0 DUP1 REVERT JUMPDEST PUSH2 0xDC PUSH1 0x4 DUP1 CALLDATASIZE SUB PUSH1 0x20 DUP2 LT ISZERO PUSH2 0x39 JUMPI PUSH1 0x0 DUP1 REVERT JUMPDEST DUP2 ADD SWAP1 DUP1 DUP1 CALLDATALOAD SWAP1 PUSH1 0x20 ADD SWAP1 PUSH5 0x100000000 DUP2 GT ISZERO PUSH2 0x56 JUMPI PUSH1 0x0 DUP1 REVERT JUMPDEST DUP3 ADD DUP4 PUSH1 0x20 DUP3 ADD GT ISZERO PUSH2 0x68 JUMPI PUSH1 0x0 DUP1 REVERT JUMPDEST DUP1 CALLDATALOAD SWAP1 PUSH1 0x20 ADD SWAP2 DUP5 PUSH1 0x1 DUP4 MUL DUP5 ADD GT PUSH5 0x100000000 DUP4 GT OR ISZERO PUSH2 0x8A JUMPI PUSH1 0x0 DUP1 REVERT JUMPDEST SWAP2 SWAP1 DUP1 DUP1 PUSH1 0x1F ADD PUSH1 0x20 DUP1 SWAP2 DIV MUL PUSH1 0x20 ADD PUSH1 0x40 MLOAD SWAP1 DUP2 ADD PUSH1 0x40 MSTORE DUP1 SWAP4 SWAP3 SWAP2 SWAP1 DUP2 DUP2 MSTORE PUSH1 0x20 ADD DUP4 DUP4 DUP1 DUP3 DUP5 CALLDATACOPY PUSH1 0x0 DUP2 DUP5 ADD MSTORE PUSH1 0x1F NOT PUSH1 0x1F DUP3 ADD AND SWAP1 POP DUP1 DUP4 ADD SWAP3 POP POP POP POP POP POP POP SWAP2 SWAP3 SWAP2 SWAP3 SWAP1 POP POP POP PUSH2 0xDE JUMP JUMPDEST STOP JUMPDEST PUSH32 0x0 PUSH20 0xFFFFFFFFFFFFFFFFFFFFFFFFFFFFFFFFFFFFFFFF AND ADDRESS PUSH20 0xFFFFFFFFFFFFFFFFFFFFFFFFFFFFFFFFFFFFFFFF AND EQ ISZERO PUSH2 0x183 JUMPI PUSH1 0x40 MLOAD PUSH32 0x8C379A000000000000000000000000000000000000000000000000000000000 DUP2 MSTORE PUSH1 0x4 ADD DUP1 DUP1 PUSH1 0x20 ADD DUP3 DUP2 SUB DUP3 MSTORE PUSH1 0x30 DUP2 MSTORE PUSH1 0x20 ADD DUP1 PUSH2 0x210 PUSH1 0x30 SWAP2 CODECOPY PUSH1 0x40 ADD SWAP2 POP POP PUSH1 0x40 MLOAD DUP1 SWAP2 SUB SWAP1 REVERT JUMPDEST DUP1 MLOAD PUSH1 0x20 JUMPDEST DUP2 DUP2 LT ISZERO PUSH2 0x20A JUMPI DUP1 DUP4 ADD MLOAD PUSH1 0xF8 SHR PUSH1 0x1 DUP3 ADD DUP5 ADD MLOAD PUSH1 0x60 SHR PUSH1 0x15 DUP4 ADD DUP6 ADD MLOAD PUSH1 0x35 DUP5 ADD DUP7 ADD MLOAD PUSH1 0x55 DUP6 ADD DUP8 ADD PUSH1 0x0 DUP6 PUSH1 0x0 DUP2 EQ PUSH2 0x1CD JUMPI PUSH1 0x1 DUP2 EQ PUSH2 0x1DD JUMPI PUSH2 0x1E8 JUMP JUMPDEST PUSH1 0x0 DUP1 DUP6 DUP6 DUP9 DUP11 GAS CALL SWAP2 POP PUSH2 0x1E8 JUMP JUMPDEST PUSH1 0x0 DUP1 DUP6 DUP6 DUP10 GAS DELEGATECALL SWAP2 POP JUMPDEST POP PUSH1 0x0 DUP2 EQ ISZERO PUSH2 0x1F7 JUMPI PUSH1 0x0 DUP1 REVERT JUMPDEST DUP3 PUSH1 0x55 ADD DUP8 ADD SWAP7 POP POP POP POP POP POP POP PUSH2 0x188 JUMP JUMPDEST POP POP POP JUMP INVALID 0x4D PUSH22 0x6C746953656E642073686F756C64206F6E6C79206265 KECCAK256 PUSH4 0x616C6C65 PUSH5 0x2076696120 PUSH5 0x656C656761 PUSH21 0x6563616C6CA26469706673582212200F700373934D 0xE CHAINID ADDRESS 0xCF 0xC0 SGT 0xB8 0x49 0xDF 0x27 0xDA PUSH21 0x8F96D0BEC201BED9149B2D7FA9FC64736F6C634300 SMOD SUB STOP CALLER "
        },
        "methodIdentifiers": {
          "multiSend(bytes)": "8d80ff0a"
        }
      }
    }
  }
}