{
  "contracts/libraries/MultiSendCallOnly.sol": {
    "MultiSendCallOnly": {
      "abi": [
        {
          "inputs": [
            {
              "internalType": "bytes",
              "name": "transactions",
              "type": "bytes"
            }
          ],
          "name": "multiSend",
          "outputs": [],
          "stateMutability": "payable",
          "type": "function"
        }
      ],
      "evm": {
        "bytecode": {
          "linkReferences": {},
          "object": "608060405234801561001057600080fd5b5061019a806100206000396000f3fe60806040526004361061001e5760003560e01c80638d80ff0a14610023575b600080fd5b6100dc6004803603602081101561003957600080fd5b810190808035906020019064010000000081111561005657600080fd5b82018360208201111561006857600080fd5b8035906020019184600183028401116401000000008311171561008a57600080fd5b91908080601f016020809104026020016040519081016040528093929190818152602001838380828437600081840152601f19601f8201169050808301925050505050505091929192905050506100de565b005b805160205b8181101561015f578083015160f81c6001820184015160601c60158301850151603584018601516055850187016000856000811461012857600181146101385761013d565b6000808585888a5af1915061013d565b600080fd5b50600081141561014c57600080fd5b82605501870196505050505050506100e3565b50505056fea26469706673582212201c9cb51c60f10d0bfbe13afa1c5da498e1d3701d2efadb12e85b401fc0575c2e64736f6c63430007030033",
          "opcodes": "PUSH1 0x80 PUSH1 0x40 MSTORE CALLVALUE DUP1 ISZERO PUSH2 0x10 JUMPI PUSH1 0x0 DUP1 REVERT JUMPDEST POP PUSH2 0x19A DUP1 PUSH2 0x20 PUSH1 0x0 CODECOPY PUSH1 0x0 RETURN INVALID PUSH1 0x80 PUSH1 0x40 MSTORE PUSH1 0x4 CALLDATASIZE LT PUSH2 0x1E JUMPI PUSH1 0x0 CALLDATALOAD PUSH1 0xE0 SHR DUP1 PUSH4 0x8D80FF0A EQ PUSH2 0x23 JUMPI JUMPDEST PUSH1 0x0 DUP1 REVERT JUMPDEST PUSH2 0xDC PUSH1 0x4 DUP1 CALLDATASIZE SUB PUSH1 0x20 DUP2 LT ISZERO PUSH2 0x39 JUMPI PUSH1 0x0 DUP1 REVERT JUMPDEST DUP2 ADD SWAP1 DUP1 DUP1 CALLDATALOAD SWAP1 PUSH1 0x20 ADD SWAP1 PUSH5 0x100000000 DUP2 GT ISZERO PUSH2 0x56 JUMPI PUSH1 0x0 DUP1 REVERT JUMPDEST DUP3 ADD DUP4 PUSH1 0x20 DUP3 ADD GT ISZERO PUSH2 0x68 JUMPI PUSH1 0x0 DUP1 REVERT JUMPDEST DUP1 CALLDATALOAD SWAP1 PUSH1 0x20 ADD SWAP2 DUP5 PUSH1 0x1 DUP4 MUL DUP5 ADD GT PUSH5 0x100000000 DUP4 GT OR ISZERO PUSH2 0x8A JUMPI PUSH1 0x0 DUP1 REVERT JUMPDEST SWAP2 SWAP1 DUP1 DUP1 PUSH1 0x1F ADD PUSH1 0x20 DUP1 SWAP2 DIV MUL PUSH1 0x20 ADD PUSH1 0x40 MLOAD SWAP1 DUP2 ADD PUSH1 0x40 MSTORE DUP1 SWAP4 SWAP3 SWAP2 SWAP1 DUP2 DUP2 MSTORE PUSH1 0x20 ADD DUP4 DUP4 DUP1 DUP3 DUP5 CALLDATACOPY PUSH1 0x0 DUP2 DUP5 ADD MSTORE PUSH1 0x1F NOT PUSH1 0x1F DUP3 ADD AND SWAP1 POP DUP1 DUP4 ADD SWAP3 POP POP POP POP POP POP POP SWAP2 SWAP3 SWAP2 SWAP3 SWAP1 POP POP POP PUSH2 0xDE JUMP JUMPDEST STOP JUMPDEST DUP1 MLOAD PUSH1 0x20 JUMPDEST DUP2 DUP2 LT ISZERO PUSH2 0x15F JUMPI DUP1 DUP4 ADD MLOAD PUSH1 0xF8 SHR PUSH1 0x1 DUP3 ADD DUP5 ADD MLOAD PUSH1 0x60 SHR PUSH1 0x15 DUP4 ADD DUP6 ADD MLOAD PUSH1 0x35 DUP5 ADD DUP7 ADD MLOAD PUSH1 0x55 DUP6 ADD DUP8 ADD PUSH1 0x0 DUP6 PUSH1 0x0 DUP2 EQ PUSH2 0x128 JUMPI PUSH1 0x1 DUP2 EQ PUSH2 0x138 JUMPI PUSH2 0x13D JUMP JUMPDEST PUSH1 0x0 DUP1 DUP6 DUP6 DUP9 DUP11 GAS CALL SWAP2 POP PUSH2 0x13D JUMP JUMPDEST PUSH1 0x0 DUP1 REVERT JUMPDEST POP PUSH1 0x0 DUP2 EQ ISZERO PUSH2 0x14C JUMPI PUSH1 0x0 DUP1 REVERT JUMPDEST DUP3 PUSH1 0x55 ADD DUP8 ADD SWAP7 POP POP POP POP POP POP POP PUSH2 0xE3 JUMP JUMPDEST POP POP POP JUMP INVALID LOG2 PUSH5 0x6970667358 0x22 SLT KECCAK256 SHR SWAP13 0xB5 SHR PUSH1 0xF1 0xD SIGNEXTEND 0xFB 0xE1 GASPRICE STATICCALL SHR 0x5D LOG4 SWAP9 0xE1 0xD3 PUSH17 0x1D2EFADB12E85B401FC0575C2E64736F6C PUSH4 0x43000703 STOP CALLER "
        },
        "methodIdentifiers": {
          "multiSend(bytes)": "8d80ff0a"
        }
      }
    }
  }
}